{
  "_format": "hh-sol-artifact-1",
  "contractName": "Domains",
  "sourceName": "contracts/Domains.sol",
  "abi": [
    {
      "inputs": [
        {
          "internalType": "string",
          "name": "_tld",
          "type": "string"
        }
      ],
      "stateMutability": "payable",
      "type": "constructor"
    },
    {
      "inputs": [],
      "name": "AlreadyRegistered",
      "type": "error"
    },
    {
      "inputs": [
        {
          "internalType": "string",
          "name": "name",
          "type": "string"
        }
      ],
      "name": "InvalidName",
      "type": "error"
    },
    {
      "inputs": [],
      "name": "Unauthorized",
      "type": "error"
    },
    {
      "anonymous": false,
      "inputs": [
        {
          "indexed": true,
          "internalType": "address",
          "name": "owner",
          "type": "address"
        },
        {
          "indexed": true,
          "internalType": "address",
          "name": "approved",
          "type": "address"
        },
        {
          "indexed": true,
          "internalType": "uint256",
          "name": "tokenId",
          "type": "uint256"
        }
      ],
      "name": "Approval",
      "type": "event"
    },
    {
      "anonymous": false,
      "inputs": [
        {
          "indexed": true,
          "internalType": "address",
          "name": "owner",
          "type": "address"
        },
        {
          "indexed": true,
          "internalType": "address",
          "name": "operator",
          "type": "address"
        },
        {
          "indexed": false,
          "internalType": "bool",
          "name": "approved",
          "type": "bool"
        }
      ],
      "name": "ApprovalForAll",
      "type": "event"
    },
    {
      "anonymous": false,
      "inputs": [
        {
          "indexed": true,
          "internalType": "address",
          "name": "from",
          "type": "address"
        },
        {
          "indexed": true,
          "internalType": "address",
          "name": "to",
          "type": "address"
        },
        {
          "indexed": true,
          "internalType": "uint256",
          "name": "tokenId",
          "type": "uint256"
        }
      ],
      "name": "Transfer",
      "type": "event"
    },
    {
      "inputs": [
        {
          "internalType": "address",
          "name": "to",
          "type": "address"
        },
        {
          "internalType": "uint256",
          "name": "tokenId",
          "type": "uint256"
        }
      ],
      "name": "approve",
      "outputs": [],
      "stateMutability": "nonpayable",
      "type": "function"
    },
    {
      "inputs": [
        {
          "internalType": "address",
          "name": "owner",
          "type": "address"
        }
      ],
      "name": "balanceOf",
      "outputs": [
        {
          "internalType": "uint256",
          "name": "",
          "type": "uint256"
        }
      ],
      "stateMutability": "view",
      "type": "function"
    },
    {
      "inputs": [
        {
          "internalType": "string",
          "name": "",
          "type": "string"
        }
      ],
      "name": "domains",
      "outputs": [
        {
          "internalType": "address",
          "name": "",
          "type": "address"
        }
      ],
      "stateMutability": "view",
      "type": "function"
    },
    {
      "inputs": [
        {
          "internalType": "string",
          "name": "name",
          "type": "string"
        }
      ],
      "name": "getAddress",
      "outputs": [
        {
          "internalType": "address",
          "name": "",
          "type": "address"
        }
      ],
      "stateMutability": "view",
      "type": "function"
    },
    {
      "inputs": [],
      "name": "getAllNames",
      "outputs": [
        {
          "internalType": "string[]",
          "name": "",
          "type": "string[]"
        }
      ],
      "stateMutability": "view",
      "type": "function"
    },
    {
      "inputs": [
        {
          "internalType": "uint256",
          "name": "tokenId",
          "type": "uint256"
        }
      ],
      "name": "getApproved",
      "outputs": [
        {
          "internalType": "address",
          "name": "",
          "type": "address"
        }
      ],
      "stateMutability": "view",
      "type": "function"
    },
    {
      "inputs": [
        {
          "internalType": "string",
          "name": "name",
          "type": "string"
        }
      ],
      "name": "getRecord",
      "outputs": [
        {
          "internalType": "string",
          "name": "",
          "type": "string"
        }
      ],
      "stateMutability": "view",
      "type": "function"
    },
    {
      "inputs": [
        {
          "internalType": "address",
          "name": "owner",
          "type": "address"
        },
        {
          "internalType": "address",
          "name": "operator",
          "type": "address"
        }
      ],
      "name": "isApprovedForAll",
      "outputs": [
        {
          "internalType": "bool",
          "name": "",
          "type": "bool"
        }
      ],
      "stateMutability": "view",
      "type": "function"
    },
    {
      "inputs": [],
      "name": "isOwner",
      "outputs": [
        {
          "internalType": "bool",
          "name": "",
          "type": "bool"
        }
      ],
      "stateMutability": "view",
      "type": "function"
    },
    {
      "inputs": [],
      "name": "name",
      "outputs": [
        {
          "internalType": "string",
          "name": "",
          "type": "string"
        }
      ],
      "stateMutability": "view",
      "type": "function"
    },
    {
      "inputs": [
        {
          "internalType": "uint256",
          "name": "",
          "type": "uint256"
        }
      ],
      "name": "names",
      "outputs": [
        {
          "internalType": "string",
          "name": "",
          "type": "string"
        }
      ],
      "stateMutability": "view",
      "type": "function"
    },
    {
      "inputs": [],
      "name": "owner",
      "outputs": [
        {
          "internalType": "address payable",
          "name": "",
          "type": "address"
        }
      ],
      "stateMutability": "view",
      "type": "function"
    },
    {
      "inputs": [
        {
          "internalType": "uint256",
          "name": "tokenId",
          "type": "uint256"
        }
      ],
      "name": "ownerOf",
      "outputs": [
        {
          "internalType": "address",
          "name": "",
          "type": "address"
        }
      ],
      "stateMutability": "view",
      "type": "function"
    },
    {
      "inputs": [
        {
          "internalType": "string",
          "name": "name",
          "type": "string"
        }
      ],
      "name": "price",
      "outputs": [
        {
          "internalType": "uint256",
          "name": "",
          "type": "uint256"
        }
      ],
      "stateMutability": "pure",
      "type": "function"
    },
    {
      "inputs": [
        {
          "internalType": "string",
          "name": "",
          "type": "string"
        }
      ],
      "name": "records",
      "outputs": [
        {
          "internalType": "string",
          "name": "",
          "type": "string"
        }
      ],
      "stateMutability": "view",
      "type": "function"
    },
    {
      "inputs": [
        {
          "internalType": "string",
          "name": "name",
          "type": "string"
        }
      ],
      "name": "register",
      "outputs": [],
      "stateMutability": "payable",
      "type": "function"
    },
    {
      "inputs": [
        {
          "internalType": "address",
          "name": "from",
          "type": "address"
        },
        {
          "internalType": "address",
          "name": "to",
          "type": "address"
        },
        {
          "internalType": "uint256",
          "name": "tokenId",
          "type": "uint256"
        }
      ],
      "name": "safeTransferFrom",
      "outputs": [],
      "stateMutability": "nonpayable",
      "type": "function"
    },
    {
      "inputs": [
        {
          "internalType": "address",
          "name": "from",
          "type": "address"
        },
        {
          "internalType": "address",
          "name": "to",
          "type": "address"
        },
        {
          "internalType": "uint256",
          "name": "tokenId",
          "type": "uint256"
        },
        {
          "internalType": "bytes",
          "name": "_data",
          "type": "bytes"
        }
      ],
      "name": "safeTransferFrom",
      "outputs": [],
      "stateMutability": "nonpayable",
      "type": "function"
    },
    {
      "inputs": [
        {
          "internalType": "address",
          "name": "operator",
          "type": "address"
        },
        {
          "internalType": "bool",
          "name": "approved",
          "type": "bool"
        }
      ],
      "name": "setApprovalForAll",
      "outputs": [],
      "stateMutability": "nonpayable",
      "type": "function"
    },
    {
      "inputs": [
        {
          "internalType": "string",
          "name": "name",
          "type": "string"
        },
        {
          "internalType": "string",
          "name": "record",
          "type": "string"
        }
      ],
      "name": "setRecord",
      "outputs": [],
      "stateMutability": "nonpayable",
      "type": "function"
    },
    {
      "inputs": [
        {
          "internalType": "bytes4",
          "name": "interfaceId",
          "type": "bytes4"
        }
      ],
      "name": "supportsInterface",
      "outputs": [
        {
          "internalType": "bool",
          "name": "",
          "type": "bool"
        }
      ],
      "stateMutability": "view",
      "type": "function"
    },
    {
      "inputs": [],
      "name": "symbol",
      "outputs": [
        {
          "internalType": "string",
          "name": "",
          "type": "string"
        }
      ],
      "stateMutability": "view",
      "type": "function"
    },
    {
      "inputs": [],
      "name": "tld",
      "outputs": [
        {
          "internalType": "string",
          "name": "",
          "type": "string"
        }
      ],
      "stateMutability": "view",
      "type": "function"
    },
    {
      "inputs": [
        {
          "internalType": "uint256",
          "name": "tokenId",
          "type": "uint256"
        }
      ],
      "name": "tokenURI",
      "outputs": [
        {
          "internalType": "string",
          "name": "",
          "type": "string"
        }
      ],
      "stateMutability": "view",
      "type": "function"
    },
    {
      "inputs": [
        {
          "internalType": "address",
          "name": "from",
          "type": "address"
        },
        {
          "internalType": "address",
          "name": "to",
          "type": "address"
        },
        {
          "internalType": "uint256",
          "name": "tokenId",
          "type": "uint256"
        }
      ],
      "name": "transferFrom",
      "outputs": [],
      "stateMutability": "nonpayable",
      "type": "function"
    },
    {
      "inputs": [],
      "name": "withdraw",
      "outputs": [],
      "stateMutability": "nonpayable",
      "type": "function"
    }
  ],
  "bytecode": "0x6080604052604051806107a0016040528061076e8152602001620052ef61076e91396009908051906020019062000038929190620002c8565b506040518060400160405280600d81526020017f3c2f746578743e3c2f7376673e00000000000000000000000000000000000000815250600a908051906020019062000086929190620002c8565b5060405162005a5d38038062005a5d8339818101604052810190620000ac919062000515565b6040518060400160405280601181526020017f4d617273204e616d6520536572766963650000000000000000000000000000008152506040518060400160405280600381526020017f4d52530000000000000000000000000000000000000000000000000000000000815250816000908051906020019062000130929190620002c8565b50806001908051906020019062000149929190620002c8565b50505033600e60006101000a81548173ffffffffffffffffffffffffffffffffffffffff021916908373ffffffffffffffffffffffffffffffffffffffff1602179055508060089080519060200190620001a5929190620002c8565b50620001f26040518060400160405280601881526020017f2573206e616d652073657276696365206465706c6f796564000000000000000081525082620001f960201b62001ae91760201c565b5062000663565b6200029b828260405160240162000212929190620005c3565b6040516020818303038152906040527f4b5c4277000000000000000000000000000000000000000000000000000000007bffffffffffffffffffffffffffffffffffffffffffffffffffffffff19166020820180517bffffffffffffffffffffffffffffffffffffffffffffffffffffffff83818316178352505050506200029f60201b60201c565b5050565b60008151905060006a636f6e736f6c652e6c6f679050602083016000808483855afa5050505050565b828054620002d6906200062d565b90600052602060002090601f016020900481019282620002fa576000855562000346565b82601f106200031557805160ff191683800117855562000346565b8280016001018555821562000346579182015b828111156200034557825182559160200191906001019062000328565b5b50905062000355919062000359565b5090565b5b80821115620003745760008160009055506001016200035a565b5090565b6000604051905090565b600080fd5b600080fd5b600080fd5b600080fd5b6000601f19601f8301169050919050565b7f4e487b7100000000000000000000000000000000000000000000000000000000600052604160045260246000fd5b620003e18262000396565b810181811067ffffffffffffffff82111715620004035762000402620003a7565b5b80604052505050565b60006200041862000378565b9050620004268282620003d6565b919050565b600067ffffffffffffffff821115620004495762000448620003a7565b5b620004548262000396565b9050602081019050919050565b60005b838110156200048157808201518184015260208101905062000464565b8381111562000491576000848401525b50505050565b6000620004ae620004a8846200042b565b6200040c565b905082815260208101848484011115620004cd57620004cc62000391565b5b620004da84828562000461565b509392505050565b600082601f830112620004fa57620004f96200038c565b5b81516200050c84826020860162000497565b91505092915050565b6000602082840312156200052e576200052d62000382565b5b600082015167ffffffffffffffff8111156200054f576200054e62000387565b5b6200055d84828501620004e2565b91505092915050565b600081519050919050565b600082825260208201905092915050565b60006200058f8262000566565b6200059b818562000571565b9350620005ad81856020860162000461565b620005b88162000396565b840191505092915050565b60006040820190508181036000830152620005df818562000582565b90508181036020830152620005f5818462000582565b90509392505050565b7f4e487b7100000000000000000000000000000000000000000000000000000000600052602260045260246000fd5b600060028204905060018216806200064657607f821691505b602082108114156200065d576200065c620005fe565b5b50919050565b614c7c80620006736000396000f3fe6080604052600436106101815760003560e01c806370a08231116100d1578063bf40fac11161008a578063e985e9c511610064578063e985e9c5146105cc578063f2c298be14610609578063fb825e5f14610625578063fe2c61981461065057610181565b8063bf40fac114610529578063c1880a9814610566578063c87b56dd1461058f57610181565b806370a08231146104195780638da5cb5b146104565780638f32d59b1461048157806395d89b41146104ac578063a22cb465146104d7578063b88d4fde1461050057610181565b8063264492351161013e57806342842e0e1161011857806342842e0e146103395780634622ab0314610362578063541e771d1461039f5780636352211e146103dc57610181565b806326449235146102ba5780632d551432146102f75780633ccfd60b1461032257610181565b806301ffc9a71461018657806306fdde03146101c3578063081812fc146101ee578063095ea7b31461022b57806311dd88451461025457806323b872dd14610291575b600080fd5b34801561019257600080fd5b506101ad60048036038101906101a89190612fce565b61068d565b6040516101ba9190613016565b60405180910390f35b3480156101cf57600080fd5b506101d861076f565b6040516101e591906130ca565b60405180910390f35b3480156101fa57600080fd5b5061021560048036038101906102109190613122565b610801565b6040516102229190613190565b60405180910390f35b34801561023757600080fd5b50610252600480360381019061024d91906131d7565b610886565b005b34801561026057600080fd5b5061027b6004803603810190610276919061327c565b61099e565b60405161028891906130ca565b60405180910390f35b34801561029d57600080fd5b506102b860048036038101906102b391906132c9565b610a51565b005b3480156102c657600080fd5b506102e160048036038101906102dc919061344c565b610ab1565b6040516102ee9190613190565b60405180910390f35b34801561030357600080fd5b5061030c610afa565b60405161031991906130ca565b60405180910390f35b34801561032e57600080fd5b50610337610b88565b005b34801561034557600080fd5b50610360600480360381019061035b91906132c9565b610c4e565b005b34801561036e57600080fd5b5061038960048036038101906103849190613122565b610c6e565b60405161039691906130ca565b60405180910390f35b3480156103ab57600080fd5b506103c660048036038101906103c1919061344c565b610d0e565b6040516103d391906130ca565b60405180910390f35b3480156103e857600080fd5b5061040360048036038101906103fe9190613122565b610dc4565b6040516104109190613190565b60405180910390f35b34801561042557600080fd5b50610440600480360381019061043b9190613495565b610e76565b60405161044d91906134d1565b60405180910390f35b34801561046257600080fd5b5061046b610f2e565b604051610478919061350d565b60405180910390f35b34801561048d57600080fd5b50610496610f54565b6040516104a39190613016565b60405180910390f35b3480156104b857600080fd5b506104c1610fac565b6040516104ce91906130ca565b60405180910390f35b3480156104e357600080fd5b506104fe60048036038101906104f99190613554565b61103e565b005b34801561050c57600080fd5b5061052760048036038101906105229190613635565b611054565b005b34801561053557600080fd5b50610550600480360381019061054b919061327c565b6110b6565b60405161055d9190613190565b60405180910390f35b34801561057257600080fd5b5061058d600480360381019061058891906136b8565b611101565b005b34801561059b57600080fd5b506105b660048036038101906105b19190613122565b6111dc565b6040516105c391906130ca565b60405180910390f35b3480156105d857600080fd5b506105f360048036038101906105ee9190613739565b61132e565b6040516106009190613016565b60405180910390f35b610623600480360381019061061e919061327c565b6113c2565b005b34801561063157600080fd5b5061063a611865565b6040516106479190613885565b60405180910390f35b34801561065c57600080fd5b506106776004803603810190610672919061327c565b611a43565b60405161068491906134d1565b60405180910390f35b60007f80ac58cd000000000000000000000000000000000000000000000000000000007bffffffffffffffffffffffffffffffffffffffffffffffffffffffff1916827bffffffffffffffffffffffffffffffffffffffffffffffffffffffff1916148061075857507f5b5e139f000000000000000000000000000000000000000000000000000000007bffffffffffffffffffffffffffffffffffffffffffffffffffffffff1916827bffffffffffffffffffffffffffffffffffffffffffffffffffffffff1916145b80610768575061076782611b85565b5b9050919050565b60606000805461077e906138d6565b80601f01602080910402602001604051908101604052809291908181526020018280546107aa906138d6565b80156107f75780601f106107cc576101008083540402835291602001916107f7565b820191906000526020600020905b8154815290600101906020018083116107da57829003601f168201915b5050505050905090565b600061080c82611bef565b61084b576040517f08c379a00000000000000000000000000000000000000000000000000000000081526004016108429061397a565b60405180910390fd5b6004600083815260200190815260200160002060009054906101000a900473ffffffffffffffffffffffffffffffffffffffff169050919050565b600061089182610dc4565b90508073ffffffffffffffffffffffffffffffffffffffff168373ffffffffffffffffffffffffffffffffffffffff161415610902576040517f08c379a00000000000000000000000000000000000000000000000000000000081526004016108f990613a0c565b60405180910390fd5b8073ffffffffffffffffffffffffffffffffffffffff16610921611c5b565b73ffffffffffffffffffffffffffffffffffffffff161480610950575061094f8161094a611c5b565b61132e565b5b61098f576040517f08c379a000000000000000000000000000000000000000000000000000000000815260040161098690613a9e565b60405180910390fd5b6109998383611c63565b505050565b6060600d83836040516109b2929190613aee565b908152602001604051809103902080546109cb906138d6565b80601f01602080910402602001604051908101604052809291908181526020018280546109f7906138d6565b8015610a445780601f10610a1957610100808354040283529160200191610a44565b820191906000526020600020905b815481529060010190602001808311610a2757829003601f168201915b5050505050905092915050565b610a62610a5c611c5b565b82611d1c565b610aa1576040517f08c379a0000000000000000000000000000000000000000000000000000000008152600401610a9890613b79565b60405180910390fd5b610aac838383611dfa565b505050565b600c818051602081018201805184825260208301602085012081835280955050505050506000915054906101000a900473ffffffffffffffffffffffffffffffffffffffff1681565b60088054610b07906138d6565b80601f0160208091040260200160405190810160405280929190818152602001828054610b33906138d6565b8015610b805780601f10610b5557610100808354040283529160200191610b80565b820191906000526020600020905b815481529060010190602001808311610b6357829003601f168201915b505050505081565b610b90610f54565b610b9957600080fd5b600047905060003373ffffffffffffffffffffffffffffffffffffffff1682604051610bc490613bca565b60006040518083038185875af1925050503d8060008114610c01576040519150601f19603f3d011682016040523d82523d6000602084013e610c06565b606091505b5050905080610c4a576040517f08c379a0000000000000000000000000000000000000000000000000000000008152600401610c4190613c2b565b60405180910390fd5b5050565b610c6983838360405180602001604052806000815250611054565b505050565b600b6020528060005260406000206000915090508054610c8d906138d6565b80601f0160208091040260200160405190810160405280929190818152602001828054610cb9906138d6565b8015610d065780601f10610cdb57610100808354040283529160200191610d06565b820191906000526020600020905b815481529060010190602001808311610ce957829003601f168201915b505050505081565b600d818051602081018201805184825260208301602085012081835280955050505050506000915090508054610d43906138d6565b80601f0160208091040260200160405190810160405280929190818152602001828054610d6f906138d6565b8015610dbc5780601f10610d9157610100808354040283529160200191610dbc565b820191906000526020600020905b815481529060010190602001808311610d9f57829003601f168201915b505050505081565b6000806002600084815260200190815260200160002060009054906101000a900473ffffffffffffffffffffffffffffffffffffffff169050600073ffffffffffffffffffffffffffffffffffffffff168173ffffffffffffffffffffffffffffffffffffffff161415610e6d576040517f08c379a0000000000000000000000000000000000000000000000000000000008152600401610e6490613cbd565b60405180910390fd5b80915050919050565b60008073ffffffffffffffffffffffffffffffffffffffff168273ffffffffffffffffffffffffffffffffffffffff161415610ee7576040517f08c379a0000000000000000000000000000000000000000000000000000000008152600401610ede90613d4f565b60405180910390fd5b600360008373ffffffffffffffffffffffffffffffffffffffff1673ffffffffffffffffffffffffffffffffffffffff168152602001908152602001600020549050919050565b600e60009054906101000a900473ffffffffffffffffffffffffffffffffffffffff1681565b6000600e60009054906101000a900473ffffffffffffffffffffffffffffffffffffffff1673ffffffffffffffffffffffffffffffffffffffff163373ffffffffffffffffffffffffffffffffffffffff1614905090565b606060018054610fbb906138d6565b80601f0160208091040260200160405190810160405280929190818152602001828054610fe7906138d6565b80156110345780601f1061100957610100808354040283529160200191611034565b820191906000526020600020905b81548152906001019060200180831161101757829003601f168201915b5050505050905090565b611050611049611c5b565b8383612061565b5050565b61106561105f611c5b565b83611d1c565b6110a4576040517f08c379a000000000000000000000000000000000000000000000000000000000815260040161109b90613b79565b60405180910390fd5b6110b0848484846121ce565b50505050565b6000600c83836040516110ca929190613aee565b908152602001604051809103902060009054906101000a900473ffffffffffffffffffffffffffffffffffffffff16905092915050565b600c8484604051611113929190613aee565b908152602001604051809103902060009054906101000a900473ffffffffffffffffffffffffffffffffffffffff1673ffffffffffffffffffffffffffffffffffffffff163373ffffffffffffffffffffffffffffffffffffffff16146111a6576040517f82b4290000000000000000000000000000000000000000000000000000000000815260040160405180910390fd5b8181600d86866040516111ba929190613aee565b908152602001604051809103902091906111d5929190612e39565b5050505050565b60606111e782611bef565b611226576040517f08c379a000000000000000000000000000000000000000000000000000000000815260040161121d90613de1565b60405180910390fd5b6000600660008481526020019081526020016000208054611246906138d6565b80601f0160208091040260200160405190810160405280929190818152602001828054611272906138d6565b80156112bf5780601f10611294576101008083540402835291602001916112bf565b820191906000526020600020905b8154815290600101906020018083116112a257829003601f168201915b5050505050905060006112d061222a565b90506000815114156112e6578192505050611329565b60008251111561131b578082604051602001611303929190613e32565b60405160208183030381529060405292505050611329565b61132484612241565b925050505b919050565b6000600560008473ffffffffffffffffffffffffffffffffffffffff1673ffffffffffffffffffffffffffffffffffffffff16815260200190815260200160002060008373ffffffffffffffffffffffffffffffffffffffff1673ffffffffffffffffffffffffffffffffffffffff16815260200190815260200160002060009054906101000a900460ff16905092915050565b600073ffffffffffffffffffffffffffffffffffffffff16600c83836040516113ec929190613aee565b908152602001604051809103902060009054906101000a900473ffffffffffffffffffffffffffffffffffffffff1673ffffffffffffffffffffffffffffffffffffffff1614611468576040517f3a81d6fc00000000000000000000000000000000000000000000000000000000815260040160405180910390fd5b60003073ffffffffffffffffffffffffffffffffffffffff1663fe2c619884846040518363ffffffff1660e01b81526004016114a5929190613e83565b602060405180830381865afa1580156114c2573d6000803e3d6000fd5b505050506040513d601f19601f820116820180604052508101906114e69190613ebc565b90508034101561152b576040517f08c379a000000000000000000000000000000000000000000000000000000000815260040161152290613f35565b60405180910390fd5b60008383600860405160200161154393929190614035565b60405160208183030381529060405290506000600982600a60405160200161156d93929190614066565b6040516020818303038152906040529050600061158a60076122e8565b905060006115db87878080601f016020809104026020016040519081016040528093929190818152602001838380828437600081840152601f19601f820116905080830192505050505050506122f6565b905060006115e8826124ab565b90506116dc604051806060016040528060318152602001614b9d6031913989898080601f016020809104026020016040519081016040528093929190818152602001838380828437600081840152601f19601f8201169050808301925050505050505060088054611658906138d6565b80601f0160208091040260200160405190810160405280929190818152602001828054611684906138d6565b80156116d15780601f106116a6576101008083540402835291602001916116d1565b820191906000526020600020905b8154815290600101906020018083116116b457829003601f168201915b50505050508661260c565b6000611712866116eb876126ae565b846040516020016116fe93929190614213565b6040516020818303038152906040526126ae565b905060008160405160200161172791906142bc565b6040516020818303038152906040529050611759604051806060016040528060398152602001614b6460399139612846565b6117986040518060400160405280600e81526020017f46696e616c20746f6b656e55524900000000000000000000000000000000000081525082611ae9565b6117b9604051806060016040528060398152602001614bce60399139612846565b6117c333866128df565b6117cd85826128fd565b33600c8b8b6040516117e0929190613aee565b908152602001604051809103902060006101000a81548173ffffffffffffffffffffffffffffffffffffffff021916908373ffffffffffffffffffffffffffffffffffffffff1602179055508989600b6000888152602001908152602001600020919061184e929190612e39565b506118596007612971565b50505050505050505050565b60606118a56040518060400160405280601f81526020017f47657474696e6720616c6c206e616d65732066726f6d20636f6e747261637400815250612846565b60006118b160076122e8565b67ffffffffffffffff8111156118ca576118c9613321565b5b6040519080825280602002602001820160405280156118fd57816020015b60608152602001906001900390816118e85790505b50905060005b61190d60076122e8565b811015611a3b57600b60008281526020019081526020016000208054611932906138d6565b80601f016020809104026020016040519081016040528092919081815260200182805461195e906138d6565b80156119ab5780601f10611980576101008083540402835291602001916119ab565b820191906000526020600020905b81548152906001019060200180831161198e57829003601f168201915b50505050508282815181106119c3576119c26142de565b5b6020026020010181905250611a286040518060400160405280601781526020017f4e616d6520666f7220746f6b656e20256420697320257300000000000000000081525082848481518110611a1b57611a1a6142de565b5b6020026020010151612987565b8080611a339061433c565b915050611903565b508091505090565b600080611a9384848080601f016020809104026020016040519081016040528093929190818152602001838380828437600081840152601f19601f820116905080830192505050505050506122f6565b905060008111611aa257600080fd5b6003811415611abc576706f05b59d3b20000915050611ae3565b6004811415611ad657670429d069189e0000915050611ae3565b67016345785d8a00009150505b92915050565b611b818282604051602401611aff929190614385565b6040516020818303038152906040527f4b5c4277000000000000000000000000000000000000000000000000000000007bffffffffffffffffffffffffffffffffffffffffffffffffffffffff19166020820180517bffffffffffffffffffffffffffffffffffffffffffffffffffffffff8381831617835250505050612a26565b5050565b60007f01ffc9a7000000000000000000000000000000000000000000000000000000007bffffffffffffffffffffffffffffffffffffffffffffffffffffffff1916827bffffffffffffffffffffffffffffffffffffffffffffffffffffffff1916149050919050565b60008073ffffffffffffffffffffffffffffffffffffffff166002600084815260200190815260200160002060009054906101000a900473ffffffffffffffffffffffffffffffffffffffff1673ffffffffffffffffffffffffffffffffffffffff1614159050919050565b600033905090565b816004600083815260200190815260200160002060006101000a81548173ffffffffffffffffffffffffffffffffffffffff021916908373ffffffffffffffffffffffffffffffffffffffff160217905550808273ffffffffffffffffffffffffffffffffffffffff16611cd683610dc4565b73ffffffffffffffffffffffffffffffffffffffff167f8c5be1e5ebec7d5bd14f71427d1e84f3dd0314c0f7b2291e5b200ac8c7c3b92560405160405180910390a45050565b6000611d2782611bef565b611d66576040517f08c379a0000000000000000000000000000000000000000000000000000000008152600401611d5d9061442e565b60405180910390fd5b6000611d7183610dc4565b90508073ffffffffffffffffffffffffffffffffffffffff168473ffffffffffffffffffffffffffffffffffffffff161480611de057508373ffffffffffffffffffffffffffffffffffffffff16611dc884610801565b73ffffffffffffffffffffffffffffffffffffffff16145b80611df15750611df0818561132e565b5b91505092915050565b8273ffffffffffffffffffffffffffffffffffffffff16611e1a82610dc4565b73ffffffffffffffffffffffffffffffffffffffff1614611e70576040517f08c379a0000000000000000000000000000000000000000000000000000000008152600401611e67906144c0565b60405180910390fd5b600073ffffffffffffffffffffffffffffffffffffffff168273ffffffffffffffffffffffffffffffffffffffff161415611ee0576040517f08c379a0000000000000000000000000000000000000000000000000000000008152600401611ed790614552565b60405180910390fd5b611eeb838383612a4f565b611ef6600082611c63565b6001600360008573ffffffffffffffffffffffffffffffffffffffff1673ffffffffffffffffffffffffffffffffffffffff1681526020019081526020016000206000828254611f469190614572565b925050819055506001600360008473ffffffffffffffffffffffffffffffffffffffff1673ffffffffffffffffffffffffffffffffffffffff1681526020019081526020016000206000828254611f9d91906145a6565b92505081905550816002600083815260200190815260200160002060006101000a81548173ffffffffffffffffffffffffffffffffffffffff021916908373ffffffffffffffffffffffffffffffffffffffff160217905550808273ffffffffffffffffffffffffffffffffffffffff168473ffffffffffffffffffffffffffffffffffffffff167fddf252ad1be2c89b69c2b068fc378daa952ba7f163c4a11628f55a4df523b3ef60405160405180910390a461205c838383612a54565b505050565b8173ffffffffffffffffffffffffffffffffffffffff168373ffffffffffffffffffffffffffffffffffffffff1614156120d0576040517f08c379a00000000000000000000000000000000000000000000000000000000081526004016120c790614648565b60405180910390fd5b80600560008573ffffffffffffffffffffffffffffffffffffffff1673ffffffffffffffffffffffffffffffffffffffff16815260200190815260200160002060008473ffffffffffffffffffffffffffffffffffffffff1673ffffffffffffffffffffffffffffffffffffffff16815260200190815260200160002060006101000a81548160ff0219169083151502179055508173ffffffffffffffffffffffffffffffffffffffff168373ffffffffffffffffffffffffffffffffffffffff167f17307eab39ab6107e8899845ad3d59bd9653f200f220920489ca2b5937696c31836040516121c19190613016565b60405180910390a3505050565b6121d9848484611dfa565b6121e584848484612a59565b612224576040517f08c379a000000000000000000000000000000000000000000000000000000000815260040161221b906146da565b60405180910390fd5b50505050565b606060405180602001604052806000815250905090565b606061224c82611bef565b61228b576040517f08c379a00000000000000000000000000000000000000000000000000000000081526004016122829061476c565b60405180910390fd5b600061229561222a565b905060008151116122b557604051806020016040528060008152506122e0565b806122bf846124ab565b6040516020016122d0929190613e32565b6040516020818303038152906040525b915050919050565b600081600001549050919050565b60008060008084519050600092505b808210156124a0576000858381518110612322576123216142de565b5b602001015160f81c60f81b9050608060f81b817effffffffffffffffffffffffffffffffffffffffffffffffffffffffffffff191610156123715760018361236a91906145a6565b925061248c565b60e060f81b817effffffffffffffffffffffffffffffffffffffffffffffffffffffffffffff191610156123b3576002836123ac91906145a6565b925061248b565b60f060f81b817effffffffffffffffffffffffffffffffffffffffffffffffffffffffffffff191610156123f5576003836123ee91906145a6565b925061248a565b60f8801b817effffffffffffffffffffffffffffffffffffffffffffffffffffffffffffff191610156124365760048361242f91906145a6565b9250612489565b60fc60f81b817effffffffffffffffffffffffffffffffffffffffffffffffffffffffffffff191610156124785760058361247191906145a6565b9250612488565b60068361248591906145a6565b92505b5b5b5b5b5082806124989061433c565b935050612305565b829350505050919050565b606060008214156124f3576040518060400160405280600181526020017f30000000000000000000000000000000000000000000000000000000000000008152509050612607565b600082905060005b6000821461252557808061250e9061433c565b915050600a8261251e91906147bb565b91506124fb565b60008167ffffffffffffffff81111561254157612540613321565b5b6040519080825280601f01601f1916602001820160405280156125735781602001600182028036833780820191505090505b5090505b600085146126005760018261258c9190614572565b9150600a8561259b91906147ec565b60306125a791906145a6565b60f81b8183815181106125bd576125bc6142de565b5b60200101907effffffffffffffffffffffffffffffffffffffffffffffffffffffffffffff1916908160001a905350600a856125f991906147bb565b9450612577565b8093505050505b919050565b6126a884848484604051602401612626949392919061481d565b6040516020818303038152906040527f9fd009f5000000000000000000000000000000000000000000000000000000007bffffffffffffffffffffffffffffffffffffffffffffffffffffffff19166020820180517bffffffffffffffffffffffffffffffffffffffffffffffffffffffff8381831617835250505050612a26565b50505050565b606060008251905060008114156126d75760405180602001604052806000815250915050612841565b600060036002836126e891906145a6565b6126f291906147bb565b60046126fe9190614877565b9050600060208261270f91906145a6565b67ffffffffffffffff81111561272857612727613321565b5b6040519080825280601f01601f19166020018201604052801561275a5781602001600182028036833780820191505090505b5090506000604051806060016040528060408152602001614c07604091399050600181016020830160005b868110156127fe5760038101905062ffffff818a015116603f8160121c168401518060081b905060ff603f83600c1c1686015116810190508060081b905060ff603f8360061c1686015116810190508060081b905060ff603f831686015116810190508060e01b90508084526004840193505050612785565b506003860660018114612818576002811461282857612833565b613d3d60f01b6002830352612833565b603d60f81b60018303525b508484525050819450505050505b919050565b6128dc8160405160240161285a91906130ca565b6040516020818303038152906040527f41304fac000000000000000000000000000000000000000000000000000000007bffffffffffffffffffffffffffffffffffffffffffffffffffffffff19166020820180517bffffffffffffffffffffffffffffffffffffffffffffffffffffffff8381831617835250505050612a26565b50565b6128f9828260405180602001604052806000815250612be1565b5050565b61290682611bef565b612945576040517f08c379a000000000000000000000000000000000000000000000000000000000815260040161293c90614943565b60405180910390fd5b8060066000848152602001908152602001600020908051906020019061296c929190612ebf565b505050565b6001816000016000828254019250508190555050565b612a2183838360405160240161299f93929190614963565b6040516020818303038152906040527fa3f5c739000000000000000000000000000000000000000000000000000000007bffffffffffffffffffffffffffffffffffffffffffffffffffffffff19166020820180517bffffffffffffffffffffffffffffffffffffffffffffffffffffffff8381831617835250505050612a26565b505050565b60008151905060006a636f6e736f6c652e6c6f679050602083016000808483855afa5050505050565b505050565b505050565b6000612a7a8473ffffffffffffffffffffffffffffffffffffffff16612c3c565b15612bd4578373ffffffffffffffffffffffffffffffffffffffff1663150b7a02612aa3611c5b565b8786866040518563ffffffff1660e01b8152600401612ac594939291906149fd565b6020604051808303816000875af1925050508015612b0157506040513d601f19601f82011682018060405250810190612afe9190614a5e565b60015b612b84573d8060008114612b31576040519150601f19603f3d011682016040523d82523d6000602084013e612b36565b606091505b50600081511415612b7c576040517f08c379a0000000000000000000000000000000000000000000000000000000008152600401612b73906146da565b60405180910390fd5b805181602001fd5b63150b7a0260e01b7bffffffffffffffffffffffffffffffffffffffffffffffffffffffff1916817bffffffffffffffffffffffffffffffffffffffffffffffffffffffff191614915050612bd9565b600190505b949350505050565b612beb8383612c5f565b612bf86000848484612a59565b612c37576040517f08c379a0000000000000000000000000000000000000000000000000000000008152600401612c2e906146da565b60405180910390fd5b505050565b6000808273ffffffffffffffffffffffffffffffffffffffff163b119050919050565b600073ffffffffffffffffffffffffffffffffffffffff168273ffffffffffffffffffffffffffffffffffffffff161415612ccf576040517f08c379a0000000000000000000000000000000000000000000000000000000008152600401612cc690614ad7565b60405180910390fd5b612cd881611bef565b15612d18576040517f08c379a0000000000000000000000000000000000000000000000000000000008152600401612d0f90614b43565b60405180910390fd5b612d2460008383612a4f565b6001600360008473ffffffffffffffffffffffffffffffffffffffff1673ffffffffffffffffffffffffffffffffffffffff1681526020019081526020016000206000828254612d7491906145a6565b92505081905550816002600083815260200190815260200160002060006101000a81548173ffffffffffffffffffffffffffffffffffffffff021916908373ffffffffffffffffffffffffffffffffffffffff160217905550808273ffffffffffffffffffffffffffffffffffffffff16600073ffffffffffffffffffffffffffffffffffffffff167fddf252ad1be2c89b69c2b068fc378daa952ba7f163c4a11628f55a4df523b3ef60405160405180910390a4612e3560008383612a54565b5050565b828054612e45906138d6565b90600052602060002090601f016020900481019282612e675760008555612eae565b82601f10612e8057803560ff1916838001178555612eae565b82800160010185558215612eae579182015b82811115612ead578235825591602001919060010190612e92565b5b509050612ebb9190612f45565b5090565b828054612ecb906138d6565b90600052602060002090601f016020900481019282612eed5760008555612f34565b82601f10612f0657805160ff1916838001178555612f34565b82800160010185558215612f34579182015b82811115612f33578251825591602001919060010190612f18565b5b509050612f419190612f45565b5090565b5b80821115612f5e576000816000905550600101612f46565b5090565b6000604051905090565b600080fd5b600080fd5b60007fffffffff0000000000000000000000000000000000000000000000000000000082169050919050565b612fab81612f76565b8114612fb657600080fd5b50565b600081359050612fc881612fa2565b92915050565b600060208284031215612fe457612fe3612f6c565b5b6000612ff284828501612fb9565b91505092915050565b60008115159050919050565b61301081612ffb565b82525050565b600060208201905061302b6000830184613007565b92915050565b600081519050919050565b600082825260208201905092915050565b60005b8381101561306b578082015181840152602081019050613050565b8381111561307a576000848401525b50505050565b6000601f19601f8301169050919050565b600061309c82613031565b6130a6818561303c565b93506130b681856020860161304d565b6130bf81613080565b840191505092915050565b600060208201905081810360008301526130e48184613091565b905092915050565b6000819050919050565b6130ff816130ec565b811461310a57600080fd5b50565b60008135905061311c816130f6565b92915050565b60006020828403121561313857613137612f6c565b5b60006131468482850161310d565b91505092915050565b600073ffffffffffffffffffffffffffffffffffffffff82169050919050565b600061317a8261314f565b9050919050565b61318a8161316f565b82525050565b60006020820190506131a56000830184613181565b92915050565b6131b48161316f565b81146131bf57600080fd5b50565b6000813590506131d1816131ab565b92915050565b600080604083850312156131ee576131ed612f6c565b5b60006131fc858286016131c2565b925050602061320d8582860161310d565b9150509250929050565b600080fd5b600080fd5b600080fd5b60008083601f84011261323c5761323b613217565b5b8235905067ffffffffffffffff8111156132595761325861321c565b5b60208301915083600182028301111561327557613274613221565b5b9250929050565b6000806020838503121561329357613292612f6c565b5b600083013567ffffffffffffffff8111156132b1576132b0612f71565b5b6132bd85828601613226565b92509250509250929050565b6000806000606084860312156132e2576132e1612f6c565b5b60006132f0868287016131c2565b9350506020613301868287016131c2565b92505060406133128682870161310d565b9150509250925092565b600080fd5b7f4e487b7100000000000000000000000000000000000000000000000000000000600052604160045260246000fd5b61335982613080565b810181811067ffffffffffffffff8211171561337857613377613321565b5b80604052505050565b600061338b612f62565b90506133978282613350565b919050565b600067ffffffffffffffff8211156133b7576133b6613321565b5b6133c082613080565b9050602081019050919050565b82818337600083830152505050565b60006133ef6133ea8461339c565b613381565b90508281526020810184848401111561340b5761340a61331c565b5b6134168482856133cd565b509392505050565b600082601f83011261343357613432613217565b5b81356134438482602086016133dc565b91505092915050565b60006020828403121561346257613461612f6c565b5b600082013567ffffffffffffffff8111156134805761347f612f71565b5b61348c8482850161341e565b91505092915050565b6000602082840312156134ab576134aa612f6c565b5b60006134b9848285016131c2565b91505092915050565b6134cb816130ec565b82525050565b60006020820190506134e660008301846134c2565b92915050565b60006134f78261314f565b9050919050565b613507816134ec565b82525050565b600060208201905061352260008301846134fe565b92915050565b61353181612ffb565b811461353c57600080fd5b50565b60008135905061354e81613528565b92915050565b6000806040838503121561356b5761356a612f6c565b5b6000613579858286016131c2565b925050602061358a8582860161353f565b9150509250929050565b600067ffffffffffffffff8211156135af576135ae613321565b5b6135b882613080565b9050602081019050919050565b60006135d86135d384613594565b613381565b9050828152602081018484840111156135f4576135f361331c565b5b6135ff8482856133cd565b509392505050565b600082601f83011261361c5761361b613217565b5b813561362c8482602086016135c5565b91505092915050565b6000806000806080858703121561364f5761364e612f6c565b5b600061365d878288016131c2565b945050602061366e878288016131c2565b935050604061367f8782880161310d565b925050606085013567ffffffffffffffff8111156136a05761369f612f71565b5b6136ac87828801613607565b91505092959194509250565b600080600080604085870312156136d2576136d1612f6c565b5b600085013567ffffffffffffffff8111156136f0576136ef612f71565b5b6136fc87828801613226565b9450945050602085013567ffffffffffffffff81111561371f5761371e612f71565b5b61372b87828801613226565b925092505092959194509250565b600080604083850312156137505761374f612f6c565b5b600061375e858286016131c2565b925050602061376f858286016131c2565b9150509250929050565b600081519050919050565b600082825260208201905092915050565b6000819050602082019050919050565b600082825260208201905092915050565b60006137c182613031565b6137cb81856137a5565b93506137db81856020860161304d565b6137e481613080565b840191505092915050565b60006137fb83836137b6565b905092915050565b6000602082019050919050565b600061381b82613779565b6138258185613784565b93508360208202850161383785613795565b8060005b85811015613873578484038952815161385485826137ef565b945061385f83613803565b925060208a0199505060018101905061383b565b50829750879550505050505092915050565b6000602082019050818103600083015261389f8184613810565b905092915050565b7f4e487b7100000000000000000000000000000000000000000000000000000000600052602260045260246000fd5b600060028204905060018216806138ee57607f821691505b60208210811415613902576139016138a7565b5b50919050565b7f4552433732313a20617070726f76656420717565727920666f72206e6f6e657860008201527f697374656e7420746f6b656e0000000000000000000000000000000000000000602082015250565b6000613964602c8361303c565b915061396f82613908565b604082019050919050565b6000602082019050818103600083015261399381613957565b9050919050565b7f4552433732313a20617070726f76616c20746f2063757272656e74206f776e6560008201527f7200000000000000000000000000000000000000000000000000000000000000602082015250565b60006139f660218361303c565b9150613a018261399a565b604082019050919050565b60006020820190508181036000830152613a25816139e9565b9050919050565b7f4552433732313a20617070726f76652063616c6c6572206973206e6f74206f7760008201527f6e6572206e6f7220617070726f76656420666f7220616c6c0000000000000000602082015250565b6000613a8860388361303c565b9150613a9382613a2c565b604082019050919050565b60006020820190508181036000830152613ab781613a7b565b9050919050565b600081905092915050565b6000613ad58385613abe565b9350613ae28385846133cd565b82840190509392505050565b6000613afb828486613ac9565b91508190509392505050565b7f4552433732313a207472616e736665722063616c6c6572206973206e6f74206f60008201527f776e6572206e6f7220617070726f766564000000000000000000000000000000602082015250565b6000613b6360318361303c565b9150613b6e82613b07565b604082019050919050565b60006020820190508181036000830152613b9281613b56565b9050919050565b600081905092915050565b50565b6000613bb4600083613b99565b9150613bbf82613ba4565b600082019050919050565b6000613bd582613ba7565b9150819050919050565b7f4661696c656420746f207769746864726177204d617469630000000000000000600082015250565b6000613c1560188361303c565b9150613c2082613bdf565b602082019050919050565b60006020820190508181036000830152613c4481613c08565b9050919050565b7f4552433732313a206f776e657220717565727920666f72206e6f6e657869737460008201527f656e7420746f6b656e0000000000000000000000000000000000000000000000602082015250565b6000613ca760298361303c565b9150613cb282613c4b565b604082019050919050565b60006020820190508181036000830152613cd681613c9a565b9050919050565b7f4552433732313a2062616c616e636520717565727920666f7220746865207a6560008201527f726f206164647265737300000000000000000000000000000000000000000000602082015250565b6000613d39602a8361303c565b9150613d4482613cdd565b604082019050919050565b60006020820190508181036000830152613d6881613d2c565b9050919050565b7f45524337323155524953746f726167653a2055524920717565727920666f722060008201527f6e6f6e6578697374656e7420746f6b656e000000000000000000000000000000602082015250565b6000613dcb60318361303c565b9150613dd682613d6f565b604082019050919050565b60006020820190508181036000830152613dfa81613dbe565b9050919050565b6000613e0c82613031565b613e168185613abe565b9350613e2681856020860161304d565b80840191505092915050565b6000613e3e8285613e01565b9150613e4a8284613e01565b91508190509392505050565b6000613e62838561303c565b9350613e6f8385846133cd565b613e7883613080565b840190509392505050565b60006020820190508181036000830152613e9e818486613e56565b90509392505050565b600081519050613eb6816130f6565b92915050565b600060208284031215613ed257613ed1612f6c565b5b6000613ee084828501613ea7565b91505092915050565b7f4e6f7420656e6f756768204d6174696320706169640000000000000000000000600082015250565b6000613f1f60158361303c565b9150613f2a82613ee9565b602082019050919050565b60006020820190508181036000830152613f4e81613f12565b9050919050565b7f2e00000000000000000000000000000000000000000000000000000000000000600082015250565b6000613f8b600183613abe565b9150613f9682613f55565b600182019050919050565b60008190508160005260206000209050919050565b60008154613fc3816138d6565b613fcd8186613abe565b94506001821660008114613fe85760018114613ff95761402c565b60ff1983168652818601935061402c565b61400285613fa1565b60005b8381101561402457815481890152600182019150602081019050614005565b838801955050505b50505092915050565b6000614042828587613ac9565b915061404d82613f7e565b91506140598284613fb6565b9150819050949350505050565b60006140728286613fb6565b915061407e8285613e01565b915061408a8284613fb6565b9150819050949350505050565b7f7b226e616d65223a202200000000000000000000000000000000000000000000600082015250565b60006140cd600a83613abe565b91506140d882614097565b600a82019050919050565b7f222c20226465736372697074696f6e223a20224120646f6d61696e206f6e207460008201527f6865204d617273206e616d652073657276696365222c2022696d616765223a2060208201527f22646174613a696d6167652f7376672b786d6c3b6261736536342c0000000000604082015250565b6000614165605b83613abe565b9150614170826140e3565b605b82019050919050565b7f222c226c656e677468223a220000000000000000000000000000000000000000600082015250565b60006141b1600c83613abe565b91506141bc8261417b565b600c82019050919050565b7f227d000000000000000000000000000000000000000000000000000000000000600082015250565b60006141fd600283613abe565b9150614208826141c7565b600282019050919050565b600061421e826140c0565b915061422a8286613e01565b915061423582614158565b91506142418285613e01565b915061424c826141a4565b91506142588284613e01565b9150614263826141f0565b9150819050949350505050565b7f646174613a6170706c69636174696f6e2f6a736f6e3b6261736536342c000000600082015250565b60006142a6601d83613abe565b91506142b182614270565b601d82019050919050565b60006142c782614299565b91506142d38284613e01565b915081905092915050565b7f4e487b7100000000000000000000000000000000000000000000000000000000600052603260045260246000fd5b7f4e487b7100000000000000000000000000000000000000000000000000000000600052601160045260246000fd5b6000614347826130ec565b91507fffffffffffffffffffffffffffffffffffffffffffffffffffffffffffffffff82141561437a5761437961430d565b5b600182019050919050565b6000604082019050818103600083015261439f8185613091565b905081810360208301526143b38184613091565b90509392505050565b7f4552433732313a206f70657261746f7220717565727920666f72206e6f6e657860008201527f697374656e7420746f6b656e0000000000000000000000000000000000000000602082015250565b6000614418602c8361303c565b9150614423826143bc565b604082019050919050565b600060208201905081810360008301526144478161440b565b9050919050565b7f4552433732313a207472616e736665722066726f6d20696e636f72726563742060008201527f6f776e6572000000000000000000000000000000000000000000000000000000602082015250565b60006144aa60258361303c565b91506144b58261444e565b604082019050919050565b600060208201905081810360008301526144d98161449d565b9050919050565b7f4552433732313a207472616e7366657220746f20746865207a65726f2061646460008201527f7265737300000000000000000000000000000000000000000000000000000000602082015250565b600061453c60248361303c565b9150614547826144e0565b604082019050919050565b6000602082019050818103600083015261456b8161452f565b9050919050565b600061457d826130ec565b9150614588836130ec565b92508282101561459b5761459a61430d565b5b828203905092915050565b60006145b1826130ec565b91506145bc836130ec565b9250827fffffffffffffffffffffffffffffffffffffffffffffffffffffffffffffffff038211156145f1576145f061430d565b5b828201905092915050565b7f4552433732313a20617070726f766520746f2063616c6c657200000000000000600082015250565b600061463260198361303c565b915061463d826145fc565b602082019050919050565b6000602082019050818103600083015261466181614625565b9050919050565b7f4552433732313a207472616e7366657220746f206e6f6e20455243373231526560008201527f63656976657220696d706c656d656e7465720000000000000000000000000000602082015250565b60006146c460328361303c565b91506146cf82614668565b604082019050919050565b600060208201905081810360008301526146f3816146b7565b9050919050565b7f4552433732314d657461646174613a2055524920717565727920666f72206e6f60008201527f6e6578697374656e7420746f6b656e0000000000000000000000000000000000602082015250565b6000614756602f8361303c565b9150614761826146fa565b604082019050919050565b6000602082019050818103600083015261478581614749565b9050919050565b7f4e487b7100000000000000000000000000000000000000000000000000000000600052601260045260246000fd5b60006147c6826130ec565b91506147d1836130ec565b9250826147e1576147e061478c565b5b828204905092915050565b60006147f7826130ec565b9150614802836130ec565b9250826148125761481161478c565b5b828206905092915050565b600060808201905081810360008301526148378187613091565b9050818103602083015261484b8186613091565b9050818103604083015261485f8185613091565b905061486e60608301846134c2565b95945050505050565b6000614882826130ec565b915061488d836130ec565b9250817fffffffffffffffffffffffffffffffffffffffffffffffffffffffffffffffff04831182151516156148c6576148c561430d565b5b828202905092915050565b7f45524337323155524953746f726167653a2055524920736574206f66206e6f6e60008201527f6578697374656e7420746f6b656e000000000000000000000000000000000000602082015250565b600061492d602e8361303c565b9150614938826148d1565b604082019050919050565b6000602082019050818103600083015261495c81614920565b9050919050565b6000606082019050818103600083015261497d8186613091565b905061498c60208301856134c2565b818103604083015261499e8184613091565b9050949350505050565b600081519050919050565b600082825260208201905092915050565b60006149cf826149a8565b6149d981856149b3565b93506149e981856020860161304d565b6149f281613080565b840191505092915050565b6000608082019050614a126000830187613181565b614a1f6020830186613181565b614a2c60408301856134c2565b8181036060830152614a3e81846149c4565b905095945050505050565b600081519050614a5881612fa2565b92915050565b600060208284031215614a7457614a73612f6c565b5b6000614a8284828501614a49565b91505092915050565b7f4552433732313a206d696e7420746f20746865207a65726f2061646472657373600082015250565b6000614ac160208361303c565b9150614acc82614a8b565b602082019050919050565b60006020820190508181036000830152614af081614ab4565b9050919050565b7f4552433732313a20746f6b656e20616c7265616479206d696e74656400000000600082015250565b6000614b2d601c8361303c565b9150614b3882614af7565b602082019050919050565b60006020820190508181036000830152614b5c81614b20565b905091905056fe0a2d2d2d2d2d2d2d2d2d2d2d2d2d2d2d2d2d2d2d2d2d2d2d2d2d2d2d2d2d2d2d2d2d2d2d2d2d2d2d2d2d2d2d2d2d2d2d2d2d2d2d2d2d2d2d2d5265676973746572696e672025732e2573206f6e2074686520636f6e7472616374207769746820746f6b656e49442025642d2d2d2d2d2d2d2d2d2d2d2d2d2d2d2d2d2d2d2d2d2d2d2d2d2d2d2d2d2d2d2d2d2d2d2d2d2d2d2d2d2d2d2d2d2d2d2d2d2d2d2d2d2d2d2d0a4142434445464748494a4b4c4d4e4f505152535455565758595a6162636465666768696a6b6c6d6e6f707172737475767778797a303132333435363738392b2fa264697066735822122093c4403abd5fd250b2dd1c464ee635f64fb0efc861fe7b162e1b4c607cc64cf364736f6c634300080a00333c73766720786d6c6e733d22687474703a2f2f7777772e77332e6f72672f323030302f737667222077696474683d2232373022206865696768743d22323730222066696c6c3d226e6f6e65223e3c706174682066696c6c3d2275726c282361292220643d224d302030683237307632373048307a222f3e3c646566733e3c66696c7465722069643d22622220636f6c6f722d696e746572706f6c6174696f6e2d66696c746572733d2273524742222066696c746572556e6974733d227573657253706163654f6e55736522206865696768743d22323730222077696474683d22323730223e3c666544726f70536861646f772064783d2230222064793d22312220737464446576696174696f6e3d22322220666c6f6f642d6f7061636974793d222e323235222077696474683d223230302522206865696768743d2232303025222f3e3c2f66696c7465723e3c2f646566733e3c7061746820643d224d37322e3836332034322e39343961342e33383220342e3338322030203020302d342e33393420306c2d31302e30383120362e3033322d362e383520332e3933342d31302e30383120362e30333261342e33383220342e3338322030203020312d342e33393420306c2d382e3031332d342e37323161342e353220342e35322030203020312d312e3538392d312e36313620342e353420342e35342030203020312d2e3630382d322e313837762d392e333161342e323720342e3237203020302031202e3537322d322e32303820342e323520342e323520302030203120312e3632352d312e3539356c372e3838342d342e353961342e33383220342e33383220302030203120342e33393420306c372e38383420342e353961342e353220342e353220302030203120312e35383920312e36313620342e353420342e3534203020302031202e36303820322e31383776362e3033326c362e38352d342e303635762d362e30333261342e323720342e32372030203020302d2e3537322d322e32303820342e323520342e32352030203020302d312e3632352d312e3539354c34312e3435362032342e353961342e33383220342e3338322030203020302d342e33393420306c2d31342e38363420382e36353561342e323520342e32352030203020302d312e36323520312e35393520342e32373320342e3237332030203020302d2e35373220322e3230387631372e34343161342e323720342e3237203020302030202e35373220322e32303820342e323520342e323520302030203020312e36323520312e3539356c31342e38363420382e36353561342e33383220342e33383220302030203020342e33393420306c31302e3038312d352e39303120362e38352d342e3036352031302e3038312d352e39303161342e33383220342e33383220302030203120342e33393420306c372e38383420342e353961342e353220342e353220302030203120312e35383920312e36313620342e353420342e3534203020302031202e36303820322e31383776392e33313161342e323720342e32372030203020312d2e35373220322e32303820342e323520342e32352030203020312d312e36323520312e3539356c2d372e38383420342e37323161342e33383220342e3338322030203020312d342e33393420306c2d372e3838342d342e353961342e353220342e35322030203020312d312e3538392d312e36313620342e353320342e35332030203020312d2e3630382d322e313837762d362e3033326c2d362e383520342e30363576362e30333261342e323720342e3237203020302030202e35373220322e32303820342e323520342e323520302030203020312e36323520312e3539356c31342e38363420382e36353561342e33383220342e33383220302030203020342e33393420306c31342e3836342d382e36353561342e35343520342e35343520302030203020322e3139382d332e3830335635352e35333861342e323720342e32372030203020302d2e3537322d322e32303820342e323520342e32352030203020302d312e3632352d312e3539356c2d31342e3939332d382e3738367a222066696c6c3d2223666666222f3e3c646566733e3c6c696e6561724772616469656e742069643d2261222078313d2230222079313d2230222078323d22323730222079323d2232373022206772616469656e74556e6974733d227573657253706163654f6e557365223e3c73746f702073746f702d636f6c6f723d2223636235656565222f3e3c73746f70206f66667365743d2231222073746f702d636f6c6f723d2223306364376534222073746f702d6f7061636974793d222e3939222f3e3c2f6c696e6561724772616469656e743e3c2f646566733e3c7465787420783d2233322e352220793d223233312220666f6e742d73697a653d223237222066696c6c3d2223666666222066696c7465723d2275726c282362292220666f6e742d66616d696c793d22506c7573204a616b617274612053616e732c44656a6156752053616e732c4e6f746f20436f6c6f7220456d6f6a692c4170706c6520436f6c6f7220456d6f6a692c73616e732d73657269662220666f6e742d7765696768743d22626f6c64223e",
  "linkReferences": {},
  "deployedLinkReferences": {}
}